{
  "contractName": "MillionairesProblem",
  "abi": [
    {
      "constant": true,
      "inputs": [],
      "name": "numMillionaires",
      "outputs": [
        {
          "name": "",
          "type": "uint256"
        }
      ],
      "payable": false,
      "stateMutability": "view",
      "type": "function"
    },
    {
      "constant": true,
      "inputs": [],
      "name": "owner",
      "outputs": [
        {
          "name": "",
          "type": "address"
        }
      ],
      "payable": false,
      "stateMutability": "view",
      "type": "function"
    },
    {
      "constant": true,
      "inputs": [],
      "name": "richestMillionaire",
      "outputs": [
        {
          "name": "",
          "type": "address"
        }
      ],
      "payable": false,
      "stateMutability": "view",
      "type": "function"
    },
    {
      "constant": true,
      "inputs": [],
      "name": "enigma",
      "outputs": [
        {
          "name": "",
          "type": "address"
        }
      ],
      "payable": false,
      "stateMutability": "view",
      "type": "function"
    },
    {
      "inputs": [
        {
          "name": "_enigmaAddress",
          "type": "address"
        },
        {
          "name": "_owner",
          "type": "address"
        }
      ],
      "payable": false,
      "stateMutability": "nonpayable",
      "type": "constructor"
    },
    {
      "anonymous": false,
      "inputs": [],
      "name": "CallbackFinished",
      "type": "event"
    },
    {
      "constant": false,
      "inputs": [
        {
          "name": "_encryptedAddress",
          "type": "bytes"
        },
        {
          "name": "_encryptedNetWorth",
          "type": "bytes"
        }
      ],
      "name": "addMillionaire",
      "outputs": [],
      "payable": false,
      "stateMutability": "nonpayable",
      "type": "function"
    },
    {
      "constant": true,
      "inputs": [
        {
          "name": "index",
          "type": "uint256"
        }
      ],
      "name": "getInfoForMillionaire",
      "outputs": [
        {
          "name": "",
          "type": "bytes"
        },
        {
          "name": "",
          "type": "bytes"
        }
      ],
      "payable": false,
      "stateMutability": "view",
      "type": "function"
    },
    {
      "constant": true,
      "inputs": [
        {
          "name": "_addresses",
          "type": "address[]"
        },
        {
          "name": "_netWorths",
          "type": "uint256[]"
        }
      ],
      "name": "computeRichest",
      "outputs": [
        {
          "name": "",
          "type": "address"
        }
      ],
      "payable": false,
      "stateMutability": "pure",
      "type": "function"
    },
    {
      "constant": false,
      "inputs": [
        {
          "name": "_address",
          "type": "address"
        }
      ],
      "name": "setRichestAddress",
      "outputs": [],
      "payable": false,
      "stateMutability": "nonpayable",
      "type": "function"
    }
  ],
  "bytecode": "0x608060405234801561001057600080fd5b50604051604080610a69833981018060405281019080805190602001909291908051906020019092919050505080600360006101000a81548173ffffffffffffffffffffffffffffffffffffffff021916908373ffffffffffffffffffffffffffffffffffffffff16021790555081600460006101000a81548173ffffffffffffffffffffffffffffffffffffffff021916908373ffffffffffffffffffffffffffffffffffffffff1602179055505050610999806100d06000396000f30060806040526004361061008e576000357c0100000000000000000000000000000000000000000000000000000000900463ffffffff168063191a09c6146100935780633ad79816146100be57806347ce9402146101015780636c2506b7146102135780638da5cb5b146102c25780639f7ce86714610319578063a8ff37c314610402578063b24fd5c514610459575b600080fd5b34801561009f57600080fd5b506100a86104b0565b6040518082815260200191505060405180910390f35b3480156100ca57600080fd5b506100ff600480360381019080803573ffffffffffffffffffffffffffffffffffffffff1690602001909291905050506104b6565b005b34801561010d57600080fd5b5061012c60048036038101908080359060200190929190505050610582565b604051808060200180602001838103835285818151815260200191508051906020019080838360005b83811015610170578082015181840152602081019050610155565b50505050905090810190601f16801561019d5780820380516001836020036101000a031916815260200191505b50838103825284818151815260200191508051906020019080838360005b838110156101d65780820151818401526020810190506101bb565b50505050905090810190601f1680156102035780820380516001836020036101000a031916815260200191505b5094505050505060405180910390f35b34801561021f57600080fd5b506102c0600480360381019080803590602001908201803590602001908080601f0160208091040260200160405190810160405280939291908181526020018383808284378201915050505050509192919290803590602001908201803590602001908080601f016020809104026020016040519081016040528093929190818152602001838380828437820191505050505050919291929050505061071a565b005b3480156102ce57600080fd5b506102d76107ba565b604051808273ffffffffffffffffffffffffffffffffffffffff1673ffffffffffffffffffffffffffffffffffffffff16815260200191505060405180910390f35b34801561032557600080fd5b506103c060048036038101908080359060200190820180359060200190808060200260200160405190810160405280939291908181526020018383602002808284378201915050505050509192919290803590602001908201803590602001908080602002602001604051908101604052809392919081815260200183836020028082843782019150505050505091929192905050506107e0565b604051808273ffffffffffffffffffffffffffffffffffffffff1673ffffffffffffffffffffffffffffffffffffffff16815260200191505060405180910390f35b34801561040e57600080fd5b50610417610862565b604051808273ffffffffffffffffffffffffffffffffffffffff1673ffffffffffffffffffffffffffffffffffffffff16815260200191505060405180910390f35b34801561046557600080fd5b5061046e610888565b604051808273ffffffffffffffffffffffffffffffffffffffff1673ffffffffffffffffffffffffffffffffffffffff16815260200191505060405180910390f35b60005481565b600460009054906101000a900473ffffffffffffffffffffffffffffffffffffffff1673ffffffffffffffffffffffffffffffffffffffff163373ffffffffffffffffffffffffffffffffffffffff1614151561051257600080fd5b80600260006101000a81548173ffffffffffffffffffffffffffffffffffffffff021916908373ffffffffffffffffffffffffffffffffffffffff1602179055507ffa6b2fa56bfe305041a2170756c9ee87984e5078d2533f89642c6ded5ff6a90260405160405180910390a150565b60608061058d6108ae565b60608060018681548110151561059f57fe5b9060005260206000209060020201604080519081016040529081600082018054600181600116156101000203166002900480601f0160208091040260200160405190810160405280929190818152602001828054600181600116156101000203166002900480156106515780601f1061062657610100808354040283529160200191610651565b820191906000526020600020905b81548152906001019060200180831161063457829003601f168201915b50505050508152602001600182018054600181600116156101000203166002900480601f0160208091040260200160405190810160405280929190818152602001828054600181600116156101000203166002900480156106f35780601f106106c8576101008083540402835291602001916106f3565b820191906000526020600020905b8154815290600101906020018083116106d657829003601f168201915b50505050508152505092508260000151915082602001519050818194509450505050915091565b6107226108ae565b60408051908101604052808481526020018381525090506001819080600181540180825580915050906001820390600052602060002090600202016000909192909190915060008201518160000190805190602001906107839291906108c8565b5060208201518160010190805190602001906107a09291906108c8565b505050506000808154809291906001019190505550505050565b600360009054906101000a900473ffffffffffffffffffffffffffffffffffffffff1681565b600080600080600090505b845181101561083f5781858281518110151561080357fe5b9060200190602002015110151561083257848181518110151561082257fe5b9060200190602002015191508092505b80806001019150506107eb565b858381518110151561084d57fe5b90602001906020020151935050505092915050565b600260009054906101000a900473ffffffffffffffffffffffffffffffffffffffff1681565b600460009054906101000a900473ffffffffffffffffffffffffffffffffffffffff1681565b604080519081016040528060608152602001606081525090565b828054600181600116156101000203166002900490600052602060002090601f016020900481019282601f1061090957805160ff1916838001178555610937565b82800160010185558215610937579182015b8281111561093657825182559160200191906001019061091b565b5b5090506109449190610948565b5090565b61096a91905b8082111561096657600081600090555060010161094e565b5090565b905600a165627a7a723058209ddf2092bcca2ddd0ff3172d292ab9a30b82fcf62f9af2b3daa5ec4bcba22ddd0029",
  "source": "pragma solidity ^0.4.17;\n\n\ncontract MillionairesProblem {\n       // Stores # of millionaires that have joined and stated their net worths\n       uint public numMillionaires;\n       // Stores Millionaire structs (defined below)\n       Millionaire[] millionaires;\n       // Stores address of richest millionaire; set in callback function below\n       address public richestMillionaire;\n       address public owner;\n       address public enigma;\n\n       // Millionaire struct which holds encrypted address and net worth\n       struct Millionaire {\n               bytes myAddress;\n               bytes myNetWorth;\n       }\n\n       // Event emitted upon callback completion; watched from front end\n       event CallbackFinished();\n\n       // Modifier to ensure only enigma contract can call function\n       modifier onlyEnigma() {\n               require(msg.sender == enigma);\n               _;\n       }\n\n       // Constructor called when new contract is deployed\n       constructor(address _enigmaAddress, address _owner) public {\n               owner = _owner;\n               enigma = _enigmaAddress;\n       }\n\n       // Add a new millionaire with encrypted address and net worth arguments\n       function addMillionaire(bytes _encryptedAddress, bytes _encryptedNetWorth)\n               public\n       {\n               Millionaire memory millionaire = Millionaire({\n                       myAddress: _encryptedAddress,\n                       myNetWorth: _encryptedNetWorth\n               });\n               millionaires.push(millionaire);\n               numMillionaires++;\n       }\n\n       // Return encrypted address and net worth for a particular millionaire\n       function getInfoForMillionaire(uint index)\n               public\n               view\n               returns (bytes, bytes)\n       {\n               Millionaire memory millionaire = millionaires[index];\n               bytes memory encryptedAddress = millionaire.myAddress;\n               bytes memory encryptedNetWorth = millionaire.myNetWorth;\n               return (encryptedAddress, encryptedNetWorth);\n       }\n\n       /*\n       CALLABLE FUNCTION run in SGX to decipher encrypted net worths to\n       determine richest millionaire\n       */\n       function computeRichest(address[] _addresses, uint[] _netWorths)\n               public\n               pure\n               returns (address)\n       {\n               uint maxIndex;\n               uint maxValue;\n               for (uint i = 0; i < _netWorths.length; i++) {\n                       if (_netWorths[i] >= maxValue) {\n                               maxValue = _netWorths[i];\n                               maxIndex = i;\n                       }\n               }\n               return _addresses[maxIndex];\n       }\n\n       /*\n       CALLBACK FUNCTION to change contract state tracking richest\n       millionaire's name\n       */\n       function setRichestAddress(address _address) public onlyEnigma() {\n               richestMillionaire = _address;\n               emit CallbackFinished();\n       }\n}",
  "sourcePath": "/Users/Noslav/Documents/Documents/blkchn/flexplore/research/enigma-template-dapp/contracts/MillionairesProblem.sol",
  "compiler": {
    "name": "solc",
    "version": "0.4.24+commit.e67f0147.Emscripten.clang"
  },
  "schemaVersion": "3.0.0-beta.2",
  "updatedAt": "2019-04-15T14:46:16.348Z",
  "devdoc": {
    "methods": {}
  },
  "userdoc": {
    "methods": {}
  }
}